:020000040800F2
:100000005807002029020008F10600081906000818
:10001000ED060008D5040008D71000080000000015
:10002000000000000000000000000000ED080008D3
:100030003D0500080000000081070008050A0008CF
:10004000430200084302000843020008430200087C
:10005000430200084302000843020008430200086C
:10006000430200084302000843020008430200085C
:10007000430200084302000843020008430200084C
:10008000430200084302000843020008430200083C
:10009000430200084302000843020008430200082C
:1000A000430200084302000843020008430200081C
:1000B000430200084302000843020008430200080C
:1000C00043020008430200084302000843020008FC
:1000D00043020008310E0008B90E00084302000870
:1000E00043020008430200084302000843020008DC
:1000F00043020008AD0B0008430200084302000859
:1001000043020008430200084302000843020008BB
:1001100043020008430200084302000843020008AB
:10012000430200084302000843020008430200089B
:10013000430200084302000843020008430200088B
:10014000430200084302000843020008430200087B
:10015000430200084302000843020008430200086B
:10016000430200084302000843020008430200085B
:10017000430200084302000843020008430200084B
:10018000430200084302000800F002F800F03CF8C7
:100190000AA090E8000C82448344AAF10107DA45E2
:1001A00001D100F031F8AFF2090EBAE80F0013F0F8
:1001B000010F18BFFB1A43F0010318477412000027
:1001C00094120000103A24BF78C878C1FAD85207B8
:1001D00024BF30C830C144BF04680C6070470000C1
:1001E0000023002400250026103A28BF78C1FBD840
:1001F000520728BF30C148BF0B6070471FB501F0E0
:1002000011F91FBD10B510BD00F06EF81146FFF7D3
:10021000F5FF01F00BF800F0A0F803B4FFF7F2FFD0
:1002200003BC00F05AFF0000094880470948004716
:10023000FEE7FEE7FEE7FEE7FEE7FEE7FEE7FEE796
:10024000FEE7FEE704480549054A064B70470000F3
:10025000090A0008890100085801002058070020F9
:100260005803002058030020704700000FB40449D1
:1002700010B503AA029800F009F810BC5DF814FB51
:10028000140000207047704770477047074B70B5E7
:100290000D467B4400F011F80446284600F020F893
:1002A00010B14FF0FF3070BD204670BD7B0F0000D5
:1002B00001694A1C02610878704700B58FB0CDE92A
:1002C00001310021059105497944CDE9031011461A
:1002D000684600F02EF80FB000BD0000E5FFFFFFFC
:1002E000007B00F080007047754600F03DF8AE4698
:1002F00005006946534620F00700854618B020B532
:10030000FFF7A0FFBDE820404FF000064FF00007C8
:100310004FF000084FF0000B21F00701AC46ACE8AD
:10032000C009ACE8C009ACE8C009ACE8C0098D461A
:1003300070472DE9F04106460024D6E90170F568C2
:100340008046304603E04146B847641C3046A84723
:100350000028F8D12046BDE8F0810446AFF30080C4
:100360002046FFF75AFF000000487047F8000020C1
:1003700021B1826842F00102826003E0826822F0CB
:1003800001028260704700000021084A1168084A93
:100390001140D0E900231A4383681A43C3681A4303
:1003A0001143044AC2F804137047000004230140BB
:1003B000E030FCFF0020014010B50121080200F0F0
:1003C00011FA00214FF4807000F00CFA10BD00000B
:1003D00030B50246002000235068104C20400D79B3
:1003E0000C6844EA05242043506090680C4C20407F
:1003F000D1E903542C438D682C434D7944EA4504DC
:1004000020439060D06A20F470000C7D641EE4B23A
:10041000234340EA0350D06230BD0000FFFEFFFCE2
:10042000FDF7FFC000B58DB00121084600F0AAF924
:100430000121080200F0C6F90121480200F0C2F9CA
:1004400020200B9003208DF8300000208DF8330021
:100450000BA91D4800F073F810200B9003208DF8B5
:10046000300000208DF833000BA9174800F067F822
:10047000FFF7A2FF0020099007904FF4803008900A
:1004800000200A9007A8FFF77FFF00208DF80900E1
:100490000590039001208DF81800002001908DF840
:1004A000080001A90948FFF793FF01A90848FFF7D1
:1004B0008FFF01210548FFF75BFF01210448FFF78B
:1004C00057FF0DB000BD00000000024000200140B9
:1004D0000021014000BFFEE710B513480088012845
:1004E00020DB11480088A0F50060282190FBF1F086
:1004F00040F22671081A0D4908800D480088A0F5C1
:100500000060142190FBF1F000F5E56009490880D6
:1005100006480188084800F044FC0648018806485F
:1005200000F041FC10BD0000240000201A00002053
:10053000260000201C000020000400407047F0B599
:100540000A4600210023002400BF3DE0012505FAF2
:1005500001F3156805EA03049C4234D105684F0095
:100560000326BE40B543056015794E00B5400668C8
:10057000354305601579012D02D01579022D16D16C
:1005800085684F000326BE40B543856055794E000F
:10059000B540866835438560456801268E40B54381
:1005A0004560456896798E40B6B235434560C5686A
:1005B0004F000326BE40B543C560D5794E00B54017
:1005C000C6683543C560491C1029BFD3F0BDF0B5DE
:1005D000002300244D07ED0E02FA05F3CE1000F1C2
:1005E000200555F826504E07F70E0F26BE40B5439E
:1005F000CF1000F1200646F82750CE1000F120055C
:1006000055F8265045EA0304CE1000F1200545F8C0
:100610002640F0BD0183704700BFFEE74CF6CC409A
:1006200001490860704700000030004070B5054681
:100630000C4645F2555000F01FF8284600F010F81F
:10064000204600F013F800F003F8FFF7E7FF70BD55
:100650004AF6AA20014908607047000000300040B7
:10066000014948607047000000300040014988603F
:1006700070470000003000400149086070470000EA
:10068000003000401CB50121084600F07BF84020F6
:10069000009001208DF8040000208DF80600012054
:1006A0008DF8070002208DF8050069460E48FFF717
:1006B00046FF40210C48FFF7ADFF8020009001204D
:1006C0008DF8040000208DF8060001208DF8070049
:1006D00002208DF8050069460348FFF730FF8021AE
:1006E0000148FFF797FF1CBD0000024000BFFEE776
:1006F0007047000070B5002100230F22C4781CB39E
:10070000174C246804F4E064C4F5E064C4F30721E2
:10071000C1F10404E3B20A4144789C40E1B2847818
:10072000144021430C07210E0E4C057861550478C6
:1007300004F01F050124AC4005786D11AD0005F1F2
:10074000E025C5F8004109E0047804F01F05012404
:10075000AC40054D0678761145F8264070BD000086
:100760000CED00E000E400E080E100E0024901431C
:10077000024A1160704700000000FA050CED00E02D
:100780007047000029B1064A12680243044B1A6000
:1007900004E0034A12688243014B1A60704700006C
:1007A0003038024029B1064A12680243044B1A60ED
:1007B00004E0034A12688243014B1A60704700004C
:1007C0004038024029B1064A12680243044B1A60BD
:1007D00004E0034A12688243014B1A60704700002C
:1007E0004438024029B1064A12680243044B1A6099
:1007F00004E0034A12688243014B1A60704700000C
:1008000024380240F0B500210022002402250026F1
:100810000223324F3F6807F00C0121B1042905D0B3
:10082000082937D105E02E4F076036E02D4F0760CD
:1008300033E02A4F3F1F3F68C7F38056274F3F1FC3
:100840003F6807F03F036EB1264FB7FBF3F7DFF8C1
:100850008CC0ACF1040CDCF800C0CCF3881C07FBA6
:100860000CF40CE01E4FB7FBF3F7DFF870C0ACF1EF
:10087000040CDCF800C0CCF3881C07FB0CF4174F09
:100880003F1F3F68C7F301477F1C7D00B4FBF5F7AE
:10089000076002E0124F076000BF00BF0F4F3F68C4
:1008A00007F0F0010909104F7A5C0768D7404760EC
:1008B0000A4F3F6807F4E051890A0B4F7A5C47689A
:1008C000D7408760054F3F6807F46041490B064FEA
:1008D0007A5C4768D740C760F0BD00000838024026
:1008E0000024F40000127A0000000020704700008D
:1008F0000CB50020019000903448006840F480302E
:100900003249086000BF3148006800F400300090B0
:100910000198401C0190009818B90198B0F5A04FBB
:10092000F1D12A48006800F4003010B10120009095
:1009300001E0002000900098012846D12348403073
:10094000006840F08050214940310860204800682C
:1009500040F440401E4908601C48083000681B49AC
:10096000083108600846006840F400400860084606
:10097000006840F4A05008601648091F0860081F6E
:10098000006840F08070091F086000BF0F480068D1
:1009900000F000700028F9D040F205700E490860A0
:1009A0000A480830006820F0030008490831086050
:1009B0000846006840F00200086000BF03480830A5
:1009C000006800F00C000828F8D10CBD0038024087
:1009D0000070004008544007003C0240042808D141
:1009E0004FF0E021096941F004014FF0E02211616C
:1009F00007E04FF0E021096921F004014FF0E02207
:100A0000116170477047000010B51548006840F448
:100A10007000134908601348006840F00100114954
:100A2000086000200F49083108600E4800680E4930
:100A300008400C4908600D48091D0860081F00683F
:100A400020F48020091F0860002006490C3108604E
:100A5000FFF74EFF4FF0006001498039086010BD7C
:100A600088ED00E000380240FFFFF6FE1030002461
:100A70001FB501210802FFF795FE40F2E730029012
:100A80005320ADF804000020ADF80600ADF80C00CE
:100A900001A90E4800F08AF9012211460B4800F026
:100AA000CFF80121094800F0AEF82D208DF80000A4
:100AB00001208DF8010003208DF8020001208DF83F
:100AC00003006846FFF716FE1FBD0000002000402F
:100AD00030B58BB004460D4601210220FFF762FEBF
:100AE00001210420FFF74EFE4020099002208DF8DE
:100AF000280003208DF8290000208DF82A0001200D
:100B00008DF82B0009A92748FFF719FD80200990CF
:100B100002208DF8280003208DF8290000208DF890
:100B20002A0001208DF82B0009A91E48FFF707FDB8
:100B3000022206211B48FFF74AFD0222072119481D
:100B4000FFF745FDADF818500020ADF81A000794E6
:100B5000ADF8200006A9144800F028F96020ADF88F
:100B600004000220ADF810000120ADF8060001A934
:100B70000D4800F06FF801A90B4800F0B3F8082108
:100B8000094800F0A5F80821074800F0FDF8012108
:100B9000054800F029F80121034800F034F80BB0B3
:100BA00030BD0000000802400004004010B50121E3
:100BB0000B4800F034F8012811D10121084800F059
:100BC0001FF808480068401C06490860084600688D
:100BD000142804DBFFF780FC00200249086010BDE8
:100BE000002000402000002021B1028842F0800255
:100BF000028004E002884FF67F731A40028070473B
:100C0000CA430282704721B1028842F00102028089
:100C100004E002884FF6FE731A400280704730B538
:100C20000246002000230024158A05EA0103958965
:100C300005EA010413B10CB1012000E0002030BD31
:100C40001AB183890B43838102E083898B438381BB
:100C50007047000070B5002400220023058C4FF679
:100C6000FE7635400584028C8388048B4FF68F75A1
:100C70002C40B51E2C400D882C43751E2A408D89B2
:100C80002A434D882A43104DA84202D00F4DA84256
:100C900013D14FF6F7752A40CD892A434FF6FB75DD
:100CA0002A408D882A434FF6FF652B404FF6FF55AB
:100CB0002B400D8A2B434D8A2B43838004838D6800
:100CC0004563028470BD0000000001400004014043
:100CD0000A460021018B4FF6F77319401143018337
:100CE0007047000070B5002400220023058C4FF6E9
:100CF000EF7635400584028C8388048B48F6FF75B7
:100D00002C404FF6FF452C400D884FF6FF7606EA43
:100D100005252C434FF6DF752A408D8906EA051517
:100D20002A434D8806EA05152A43154DA84202D0EC
:100D3000144DA8421DD14FF67F752A40CD894FF63C
:100D4000FF7606EA05152A434FF6BF752A408D88BF
:100D500006EA05152A434FF6FF352B404FF2FF7583
:100D60002B400D8A06EA85052B434D8A06EA850548
:100D70002B43838004838D688563028470BD0000EB
:100D800000000140000401400A460021018B4FF29F
:100D9000FF7319404FF6FF7303EA022319430183DF
:100DA00070474163704781637047000000220288EA
:100DB000184B98420ED0184B98420BD0B0F1804F90
:100DC00008D0164B984205D0154B984202D0154BCF
:100DD000984204D14FF68F731A404B881A43124B36
:100DE000984207D0114B984204D04FF6FF431A4067
:100DF0000B891A4302804B68C3620B880385054B3D
:100E0000984202D0044B984201D18B7A0386012389
:100E1000838270470000014000040140000400404C
:100E200000080040000C004000100040001400408A
:100E300010B540F225511D4800F08EF810B31B4844
:100E400000F044F9C4B21A48008800F40040C8B960
:100E50001748008800F4804060B10A2C03D00020BD
:100E60001349088020E01248008840F400401049EF
:100E7000088019E00D2C06D10D48008840F4804010
:100E80000B49088010E00A480088C0F30D000949AA
:100E90000C5407480088401C054908800846008813
:100EA000C72801DD0020088010BD000000100140AF
:100EB000180000203000002010B540F225511D48D8
:100EC00000F04AF810B31B4800F000F9C4B21A4809
:100ED000008800F40040C8B91748008800F480403A
:100EE00060B10A2C03D000201349088020E012488A
:100EF000008840F400401049088019E00D2C06D10C
:100F00000D48008840F480400B49088010E00A48F2
:100F10000088C0F30D0009490C5407480088401CA4
:100F20000549088008460088C72801DD00200880A0
:100F300010BD0000004400401800002030000020D8
:100F400021B1828942F40052828104E082894DF607
:100F5000FF731A408281704770B502460024002357
:100F60000025002040F66A16B14200D100BFC1F34F
:100F7000421501F01F03012606FA03F3012D02D1E9
:100F80009689334006E0022D02D1168A334001E0F3
:100F9000968A33400C12012606FA04F4168834406F
:100FA00013B10CB1012000E0002070BDF0B5034684
:100FB000002400260025002040F66A17B94200D11F
:100FC00000BF1846C1F3421401F01F06012707FABB
:100FD00006F5012C01D10C3004E0022C01D11030B7
:100FE00000E014301AB107682F43076002E0076879
:100FF000AF430760F0BD00002DE9FF4705460E46F0
:101000000024A14600BFA046B08900B100BF2C8AD1
:1010100024F44054F08804432C82AC8941F20C60E3
:101020008443B08831890843718908430443AC8103
:10103000AC8A24F44074B0890443AC826846FFF75C
:10104000E1FB2048854202D01F48854202D1DDF8ED
:101050000C9001E0DDF80890A88900F4004040B150
:1010600009EBC90000EB091031684900B0FBF1F74A
:1010700007E009EBC90000EB091031688900B0FBFB
:10108000F1F76420B7FBF0F004012009642101FBB3
:101090001078A88900F4004040B1322000EBC8006D
:1010A000B0FBF1F000F00700044308E0322000EB51
:1010B00008106421B0FBF1F000F00F0004432C8114
:1010C000BDE8FF87001001400014014001468888F8
:1010D000C0F30800704700BFFEE7014600BF70473D
:1010E00010B54FF4A060FFF741FBA82000F030F8E6
:1010F000FFF7C8FAFFF7BCFC40F2473140F2CF706F
:10110000FFF7E6FC4FF4E13000F036F94FF4E13040
:1011100000F0DCF8FFF786F94FF4FA710320FFF7CF
:1011200085FA0D20064908710A20487100200549FA
:101130000880054801880548FFF735FE10BD00000E
:1011400028000020180000201C000020000400409F
:1011500010B504466FF00400FFF740FCE11704EB04
:101160005171C1F3C701074A11701046007800EBB6
:101170004001C1EBC0104FF6FF7101EAC000024907
:10118000088010BD100000201200002070B5044639
:101190004FF4077094FBF0F0C6B24FF4077094FB65
:1011A000F0F100FB114085B205E04FF4077000F04C
:1011B00009F8701EC6B2002EF7D115B1284600F00E
:1011C00001F870BD0146114A12884A434FF0E023EE
:1011D0005A6100229A611A46126942F001021A61AC
:1011E00000BF4FF0E022106900F001021AB100F4D4
:1011F0008032002AF5D04FF0E022126922F001027D
:101200004FF0E0231A6100229A617047120000201B
:1012100000BF054A128802F04002002AF9D0C2B28B
:10122000014B9A80704700000010014000BF00BFD2
:1012300000BF002400BF00BFFFF752FF1BA0FFF755
:1012400015F831E01B48008800F40040C0B119488F
:101250000088C0F30D00042812D1174840781649C1
:10126000097840EA0120154908801348C0781249DE
:10127000897840EA01201249088000200D49088041
:10128000641C1E2C01DCFFF7E3F90E480068C04324
:101290000D49C1F898020846D0F89C02C043C1F835
:1012A0009C021E20FFF772FFCCE7000072656164AC
:1012B000793F0000180000203000002024000020AA
:1012C00026000020980240420000404210B588B03D
:1012D000044601210846FFF755FA01214804FFF7AB
:1012E00061FA072202212248FFF771F90722032140
:1012F0001F48FFF76CF90C20069002208DF81C00A7
:101300008DF81D0000208DF81E0001208DF81F00B3
:1013100006A91748FFF713F902940020ADF80C0056
:10132000ADF80E00ADF81000ADF814000C20ADF8CB
:10133000120002A90F48FFF75FFE01210D48FFF7D9
:10134000FFFD012240F225510A48FFF72FFE26201B
:101350008DF8040003208DF805008DF806000120AB
:101360008DF8070001A8FFF7C5F908B010BD00000F
:10137000000002400044004010B588B0044601213E
:101380000846FFF7FFF901211020FFF71BFA07229B
:1013900009212248FFF71BF907220A211F48FFF7FE
:1013A00016F94FF4C060069002208DF81C008DF8ED
:1013B0001D0000208DF81E0001208DF81F0006A9D9
:1013C0001648FFF7BCF802940020ADF80C00ADF809
:1013D0000E00ADF81000ADF814000C20ADF81200AE
:1013E00002A90F48FFF708FE01210D48FFF7A8FDED
:1013F000012240F225510A48FFF7D8FD25208DF83B
:10140000040003208DF805008DF8060001208DF8FA
:10141000070001A8FFF76EF908B010BD00000240F8
:10142000001001404FF04070E1EE100A70470000DC
:10143000501400080000002030000000C401000823
:10144000801400083000002028070000E001000898
:10145000000000000102030401020304060708095A
:10146000000000000000000000000000000000007C
:10147000000000000000000000000000000000006C
:0400000508000229C4
:00000001FF
