:020000040800F2
:100000004807002039020008D1050008C90500088A
:10001000CD050008ED040008D70B00080000000023
:10002000000000000000000000000000AD07000814
:10003000F10400080000000061060008C50800087F
:10004000530200085302000853020008530200083C
:10005000530200085302000853020008530200082C
:10006000530200085302000853020008530200081C
:10007000530200085302000853020008530200080C
:1000800053020008530200085302000853020008FC
:1000900053020008530200085302000853020008EC
:1000A00053020008530200085302000853020008DC
:1000B00053020008530200085302000853020008CC
:1000C00053020008530200085302000853020008BC
:1000D0005302000831090008B9090008530200085A
:1000E000530200085302000853020008530200089C
:1000F000530200085302000853020008530200088C
:10010000530200085302000853020008530200087B
:10011000530200085302000853020008530200086B
:10012000530200085302000853020008530200085B
:10013000530200085302000853020008530200084B
:10014000530200085302000853020008530200083B
:10015000530200085302000853020008530200082B
:10016000530200085302000853020008530200081B
:10017000530200085302000853020008530200080B
:10018000530200085302000800F002F800F044F89F
:100190000AA090E8000C82448344AAF10107DA45E2
:1001A00001D100F039F8AFF2090EBAE80F0013F0F0
:1001B000010F18BFFB1A43F0010318474C0D000054
:1001C0006C0D0000103A24BF78C878C1FAD85207E5
:1001D00024BF30C830C144BF04680C6070470000C1
:1001E0000023002400250026103A28BF78C1FBD840
:1001F000520728BF30C148BF0B607047642900F028
:100200007D80752900F07A80002070471FB500F0CE
:1002100075FE1FBD10B510BD00F038F91146FFF78F
:10022000F5FF00F04BFD00F056F903B4FFF7F2FFC5
:1002300003BC00F0D2FC0000094880470948004791
:10024000FEE7FEE7FEE7FEE7FEE7FEE7FEE7FEE786
:10025000FEE7FEE704480549054A064B70470000E3
:10026000C90800088901000848010020480700204B
:100270004803002048030020704700000FB40449E1
:1002800010B503AA029800F0D3F810BC5DF814FB77
:10029000140000202DE9F0410E46044600202062A3
:1002A0002046E168884730B3252805D0D4E90121EC
:1002B0009047206A401CF2E7E16820460027884703
:1002C000050018D0A5F14100192802D820354FF4B7
:1002D00000673246294620462760FFF78FFF40B16E
:1002E000012804D0F61D26F007060836D8E7361D8B
:1002F000D6E72846DAE7206ABDE8F0812DE9F0412B
:100300000646002410687529314616A510D0AFF3B3
:100310000080002802DA404213A507E031688A070E
:1003200001D512A502E0490704D511A5012401E079
:10033000AFF3008000210A2206F1240709E0B0FB98
:10034000F2FCB0FBF2F302FB1C003030785418468C
:10035000491C0028F3D123462A463046BDE8F04127
:1003600000F00CB8000000002D0000002B00000081
:100370002000000070477047704770472DE9F04734
:100380000D4699469246044600F124080168880605
:1003900004D5E06921F01001216000E00120A842AD
:1003A00001DD471B00E00027A1697A1902EB090073
:1003B000081AA0612078C00602D42046AFF300805E
:1003C000002608E0D4E901211AF806009047206AC7
:1003D000401C761C20624E45F4DB2078C0060AD50E
:1003E0002046AFF3008006E0D4E901213020904799
:1003F000206A401C2062381EA7F10107F4DC07E0E8
:10040000D4E9012118F805009047206A401C2062B9
:10041000281EA5F10105F3DC2046AFF3008020780B
:10042000000602D50220BDE8F0870120FBE70000AE
:10043000074B70B50D467B4400F011F80446284682
:1004400000F020F810B14FF0FF3070BD204670BDB5
:100450006708000001694A1C02610878704700B50E
:100460008FB0CDE901310021059105497944CDE9ED
:10047000031011466846FFF70DFF0FB000BD0000E6
:10048000E5FFFFFF007B00F080007047754600F03D
:1004900029F8AE4605006946534620F00700854618
:1004A00018B020B5FFF7D6FEBDE820404FF000069B
:1004B0004FF000074FF000084FF0000B21F007014C
:1004C000AC46ACE8C009ACE8C009ACE8C009ACE88F
:1004D000C0098D4670470446AFF300802046FFF701
:1004E000A4FE000000487047E400002000BFFEE7C3
:1004F0007047F0B50A4600210023002400BF3DE00C
:10050000012505FA01F3156805EA03049C4234D17C
:1005100005684F000326BE40B543056015794E00BF
:10052000B5400668354305601579012D02D015796F
:10053000022D16D185684F000326BE40B543856065
:1005400055794E00B540866835438560456801267B
:100550008E40B5434560456896798E40B6B23543C6
:100560004560C5684F000326BE40B543C560D579D8
:100570004E00B540C6683543C560491C1029BFD33D
:10058000F0BDF0B5002300244D07ED0E02FA05F38F
:10059000CE1000F1200555F826504E07F70E0F2615
:1005A000BE40B543CF1000F1200646F82750CE10CC
:1005B00000F1200555F8265045EA0304CE1000F15D
:1005C000200545F82640F0BD00BFFEE700BFFEE76E
:1005D0007047000070B5002100230F22C4781CB3BF
:1005E000174C246804F4E064C4F5E064C4F3072104
:1005F000C1F10404E3B20A4144789C40E1B284783A
:10060000144021430C07210E0E4C057861550478E7
:1006100004F01F050124AC4005786D11AD0005F113
:10062000E025C5F8004109E0047804F01F05012425
:10063000AC40054D0678761145F8264070BD0000A7
:100640000CED00E000E400E080E100E0024901433D
:10065000024A1160704700000000FA050CED00E04E
:100660007047000029B1064A12680243044B1A6021
:1006700004E0034A12688243014B1A60704700008D
:100680003038024029B1064A12680243044B1A600E
:1006900004E0034A12688243014B1A60704700006D
:1006A0004038024029B1064A12680243044B1A60DE
:1006B00004E0034A12688243014B1A60704700004D
:1006C00044380240F0B50021002200240225002613
:1006D0000223324F3F6807F00C0121B1042905D0F5
:1006E000082937D105E02E4F076036E02D4F07600F
:1006F00033E02A4F3F1F3F68C7F38056274F3F1F05
:100700003F6807F03F036EB1264FB7FBF3F7DFF802
:100710008CC0ACF1040CDCF800C0CCF3881C07FBE7
:100720000CF40CE01E4FB7FBF3F7DFF870C0ACF130
:10073000040CDCF800C0CCF3881C07FB0CF4174F4A
:100740003F1F3F68C7F301477F1C7D00B4FBF5F7EF
:10075000076002E0124F076000BF00BF0F4F3F6805
:1007600007F0F0010909104F7A5C0768D74047602D
:100770000A4F3F6807F4E051890A0B4F7A5C4768DB
:10078000D7408760054F3F6807F46041490B064F2B
:100790007A5C4768D740C760F0BD00000838024067
:1007A0000024F40000127A000000002070470000CE
:1007B0000CB50020019000903448006840F480306F
:1007C0003249086000BF3148006800F400300090F2
:1007D0000198401C0190009818B90198B0F5A04FFD
:1007E000F1D12A48006800F4003010B101200090D7
:1007F00001E0002000900098012846D123484030B5
:10080000006840F08050214940310860204800686D
:1008100040F440401E4908601C48083000681B49ED
:10082000083108600846006840F400400860084647
:10083000006840F4A05008601648091F0860081FAF
:10084000006840F08070091F086000BF0F48006812
:1008500000F000700028F9D040F205700E490860E1
:100860000A480830006820F0030008490831086091
:100870000846006840F00200086000BF03480830E6
:10088000006800F00C000828F8D10CBD00380240C8
:100890000070004008544007003C0240042808D182
:1008A0004FF0E021096941F004014FF0E0221161AD
:1008B00007E04FF0E021096921F004014FF0E02248
:1008C000116170477047000010B51548006840F48A
:1008D0007000134908601348006840F00100114996
:1008E000086000200F49083108600E4800680E4972
:1008F00008400C4908600D48091D0860081F006881
:1009000020F48020091F0860002006490C3108608F
:10091000FFF74EFF4FF0006001498039086010BDBD
:1009200088ED00E000380240FFFFF6FE10300024A2
:1009300010B540F225511D4800F08EF810B31B4849
:1009400000F044F9C4B21A48008800F40040C8B965
:100950001748008800F4804060B10A2C03D00020C2
:100960001349088020E01248008840F400401049F4
:10097000088019E00D2C06D10D48008840F4804015
:100980000B49088010E00A480088C0F30D000949AF
:100990000C5407480088401C054908800846008818
:1009A000C72801DD0020088010BD000000100140B4
:1009B000180000201C00002010B540F225511D48F1
:1009C00000F04AF810B31B4800F000F9C4B21A480E
:1009D000008800F40040C8B91748008800F480403F
:1009E00060B10A2C03D000201349088020E012488F
:1009F000008840F400401049088019E00D2C06D111
:100A00000D48008840F480400B49088010E00A48F7
:100A10000088C0F30D0009490C5407480088401CA9
:100A20000549088008460088C72801DD00200880A5
:100A300010BD000000440040180000201C000020F1
:100A400021B1828942F40052828104E082894DF60C
:100A5000FF731A408281704770B50246002400235C
:100A60000025002040F66A16B14200D100BFC1F354
:100A7000421501F01F03012606FA03F3012D02D1EE
:100A80009689334006E0022D02D1168A334001E0F8
:100A9000968A33400C12012606FA04F41688344074
:100AA00013B10CB1012000E0002070BDF0B5034689
:100AB000002400260025002040F66A17B94200D124
:100AC00000BF1846C1F3421401F01F06012707FAC0
:100AD00006F5012C01D10C3004E0022C01D11030BC
:100AE00000E014301AB107682F43076002E007687E
:100AF000AF430760F0BD00002DE9FF4705460E46F5
:100B00000024A14600BFA046B08900B100BF2C8AD6
:100B100024F44054F08804432C82AC8941F20C60E8
:100B20008443B08831890843718908430443AC8108
:100B3000AC8A24F44074B0890443AC826846FFF761
:100B4000C1FD2048854202D01F48854202D1DDF810
:100B50000C9001E0DDF80890A88900F4004040B155
:100B600009EBC90000EB091031684900B0FBF1F74F
:100B700007E009EBC90000EB091031688900B0FB00
:100B8000F1F76420B7FBF0F004012009642101FBB8
:100B90001078A88900F4004040B1322000EBC80072
:100BA000B0FBF1F000F00700044308E0322000EB56
:100BB00008106421B0FBF1F000F00F0004432C8119
:100BC000BDE8FF87001001400014014001468888FD
:100BD000C0F30800704700BFFEE700BF7047000089
:100BE00010B504466FF00400FFF758FEE11704EB60
:100BF0005171C1F3C701074A11701046007800EB2C
:100C00004001C1EBC0104FF6FF7101EAC00002497C
:100C1000088010BD100000201200002070B50446AE
:100C20004FF4077094FBF0F0C6B24FF4077094FBDA
:100C3000F0F100FB114085B205E04FF4077000F0C1
:100C400009F8701EC6B2002EF7D115B1284600F083
:100C500001F870BD0146114A12884A434FF0E02363
:100C60005A6100229A611A46126942F001021A6121
:100C700000BF4FF0E022106900F001021AB100F449
:100C80008032002AF5D04FF0E022126922F00102F2
:100C90004FF0E0231A6100229A6170471200002091
:100CA00000BF054A128802F04002002AF9D0C2B201
:100CB000014B9A80704700000010014000BF4FF4C4
:100CC000A060FFF7C3FC6426A820FFF789FF4FF45C
:100CD000E13000F0BDF84FF4E13000F063F8314648
:100CE0001CA0FFF7CBFA00201B49088030E06420ED
:100CF000FFF794FF19A0FFF7C1FA1748008800F426
:100D00000040D0B119A0FFF7B9FA13480088C0F32A
:100D10000D00042802D117A0FFF7B0FA1A48407856
:100D20001949097840EA01241748C078164989789A
:100D300040EA0125002008490880214613A0FFF75A
:100D40009DFA294614A0FFF799FA6420FFF766FF81
:100D5000CDE7000025640A00180000200D0A617329
:100D6000732077652063616E0D0A000068656C6C06
:100D70006F3F00000D0AC4FAB7A2CBCDB5C4CFFBBC
:100D8000CFA2CEAA3A0D0A001C0000206164633194
:100D90003D25750D0A000000616463323D25750D27
:100DA0000A00000010B588B0044601210846FFF78C
:100DB00059FC01214804FFF765FC07220221224863
:100DC000FFF7DFFB072203211F48FFF7DAFB0C20A8
:100DD000069002208DF81C008DF81D0000208DF873
:100DE0001E0001208DF81F0006A91748FFF781FBA0
:100DF00002940020ADF80C00ADF80E00ADF8100024
:100E0000ADF814000C20ADF8120002A90F48FFF74E
:100E100073FE01210D48FFF713FE012240F2255118
:100E20000A48FFF743FE26208DF8040003208DF8C2
:100E300005008DF8060001208DF8070001A8FFF7D6
:100E4000C9FB08B010BD0000000002400044004093
:100E500010B588B0044601210846FFF703FC0121C4
:100E60001020FFF71FFC072209212248FFF789FB0A
:100E700007220A211F48FFF784FB4FF4C060069049
:100E800002208DF81C008DF81D0000208DF81E003A
:100E900001208DF81F0006A91648FFF72AFB0294CF
:100EA0000020ADF80C00ADF80E00ADF81000ADF864
:100EB00014000C20ADF8120002A90F48FFF71CFE29
:100EC00001210D48FFF7BCFD012240F225510A48DF
:100ED000FFF7ECFD25208DF8040003208DF80500B8
:100EE0008DF8060001208DF8070001A8FFF772FBBE
:100EF00008B010BD00000240001001404FF04070EB
:100F0000E1EE100A70470000280F000800000020E2
:100F10001C000000C4010008440F00081C00002051
:100F20002C070000E001000800000000010203049B
:100F30000102030406070809000000000000000089
:040F400000000000AD
:0400000508000239B4
:00000001FF
