:020000040800F2
:1000000038070020290200082D040008B303000867
:1000100029040008D10200080709000800000000B8
:100020000000000000000000000000007104000853
:10003000D7020008000000002F040008890500080E
:10004000430200084302000843020008430200087C
:10005000430200084302000843020008430200086C
:10006000430200084302000843020008430200085C
:10007000430200084302000843020008430200084C
:10008000430200084302000843020008430200083C
:10009000430200084302000843020008430200082C
:1000A000430200084302000843020008430200081C
:1000B000430200084302000843020008430200080C
:1000C00043020008430200084302000843020008FC
:1000D0004302000821080008430200084302000808
:1000E00043020008430200084302000843020008DC
:1000F0004302000895060008430200084302000876
:1001000043020008430200084302000843020008BB
:1001100043020008430200084302000843020008AB
:10012000430200084302000843020008430200089B
:10013000430200084302000843020008430200088B
:10014000430200084302000843020008430200087B
:10015000430200084302000843020008430200086B
:10016000430200084302000843020008430200085B
:10017000430200084302000843020008430200084B
:10018000430200084302000800F002F800F03CF8C7
:100190000AA090E8000C82448344AAF10107DA45E2
:1001A00001D100F031F8AFF2090EBAE80F0013F0F8
:1001B000010F18BFFB1A43F001031847B8070000EE
:1001C000D8070000103A24BF78C878C1FAD852077F
:1001D00024BF30C830C144BF04680C6070470000C1
:1001E0000023002400250026103A28BF78C1FBD840
:1001F000520728BF30C148BF0B6070471FB500F0E1
:10020000B3FB1FBD10B510BD00F033F81146FFF76A
:10021000F5FF00F09BFB00F051F803B4FFF7F2FF8D
:1002200003BC00F072FB0000094880470948004702
:10023000FEE7FEE7FEE7FEE7FEE7FEE7FEE7FEE796
:10024000FEE7FEE704480549054A064B70470000F3
:100250008D050008890100083801002038070020BA
:1002600038030020380300207047704770477047FC
:100270007047754600F028F8AE46050069465346BB
:1002800020F00700854618B020B5FFF7DBFFBDE87A
:1002900020404FF000064FF000074FF000084FF0ED
:1002A000000B21F00701AC46ACE8C009ACE8C0097E
:1002B000ACE8C009ACE8C0098D4670470446AFF30E
:1002C00000802046FFF7A9FF00487047D4000020B7
:1002D00000BFFEE770477047F0B50A4600210023D3
:1002E000002400BF3DE0012505FA01F3156805EA89
:1002F00003049C4234D105684F000326BE40B54339
:10030000056015794E00B5400668354305601579DE
:10031000012D02D01579022D16D185684F000326D4
:10032000BE40B543856055794E00B540866835437B
:100330008560456801268E40B543456045689679DD
:100340008E40B6B235434560C5684F000326BE40B7
:10035000B543C560D5794E00B540C6683543C56024
:10036000491C1029BFD3F0BDF0B5002300244D0770
:10037000ED0E02FA05F3CE1000F1200555F82650D7
:100380004E07F70E0F26BE40B543CF1000F12006F2
:1003900046F82750CE1000F1200555F8265045EAC2
:1003A0000304CE1000F1200545F82640F0BD01837E
:1003B000704700BFFEE700001CB50121202000F0BF
:1003C00037F84FF40070009001208DF804000020F1
:1003D0008DF8060001208DF8070002208DF8050039
:1003E00069461048FFF778FF4FF400710D48FFF79A
:1003F000DEFF4FF48060009001208DF804000020A3
:100400008DF8060001208DF8070002208DF8050008
:1004100069460448FFF760FF4FF480610148FFF729
:10042000C6FF1CBD0014024000BFFEE770477047C6
:1004300029B1064A12680243044B1A6004E0034AD9
:1004400012688243014B1A60704700003038024046
:1004500029B1064A12680243044B1A6004E0034AB9
:1004600012688243014B1A60704700004038024016
:10047000704700000CB500200190009034480068DF
:1004800040F480303249086000BF3148006800F411
:10049000003000900198401C0190009818B9019814
:1004A000B0F5A04FF1D12A48006800F4003010B137
:1004B0000120009001E0002000900098012846D122
:1004C00023484030006840F08050214940310860A6
:1004D0002048006840F440401E4908601C4808302D
:1004E00000681B49083108600846006840F4004075
:1004F00008600846006840F4A05008601648091FCC
:100500000860081F006840F08070091F086000BF85
:100510000F48006800F000700028F9D040F2057024
:100520000E4908600A480830006820F003000849B6
:10053000083108600846006840F00200086000BF0B
:1005400003480830006800F00C000828F8D10CBD02
:10055000003802400070004008544007003C024050
:10056000042808D14FF0E021096941F004014FF05F
:10057000E022116107E04FF0E021096921F0040158
:100580004FF0E022116170477047000010B5154828
:10059000006840F47000134908601348006840F098
:1005A00001001149086000200F49083108600E4819
:1005B00000680E4908400C4908600D48091D086094
:1005C000081F006820F48020091F086000200649E9
:1005D0000C310860FFF74EFF4FF000600149803991
:1005E000086010BD88ED00E000380240FFFFF6FE15
:1005F0001030002430B58BB004460D4601210802AE
:10060000FFF726FF01212020FFF712FF4FF40070B3
:10061000099002208DF8280003208DF82900002081
:100620008DF82A0001208DF82B0009A91748FFF743
:1006300053FE092211461548FFF796FEADF81850F3
:100640000020ADF81A000794ADF8200006A9104864
:1006500000F0A4F86020ADF804000220ADF810000E
:100660000120ADF8060001A9094800F04FF8082163
:10067000074800F089F80121054800F01BF8012126
:10068000034800F026F80BB030BD00000014024013
:100690000020004010B50121054800F026F801288F
:1006A00005D10121024800F011F8FFF713FE10BD3B
:1006B0000020004021B1028842F08002028004E064
:1006C00002884FF67F731A4002807047CA43028245
:1006D000704721B1028842F00102028004E00288E2
:1006E0004FF6FE731A400280704730B50246002074
:1006F00000230024158A05EA0103958905EA01040F
:1007000013B10CB1012000E0002030BD70B5002411
:1007100000220023058C4FF6FE7635400584028CBE
:100720008388048B4FF68F752C40B51E2C400D88A6
:100730002C43751E2A408D892A434D882A43104D2B
:10074000A84202D00F4DA84213D14FF6F7752A40A8
:10075000CD892A434FF6FB752A408D882A434FF6F0
:10076000FF652B404FF6FF552B400D8A2B434D8ADA
:100770002B43838004838D684563028470BD000031
:1007800000000140000401400A460021018B4FF6A1
:10079000F77319401143018370470000002202885B
:1007A000184B98420ED0184B98420BD0B0F1804FA6
:1007B00008D0164B984205D0154B984202D0154BE5
:1007C000984204D14FF68F731A404B881A43124B4C
:1007D000984207D0114B984204D04FF6FF431A407D
:1007E0000B891A4302804B68C3620B880385054B53
:1007F000984202D0044B984201D18B7A03860123A0
:100800008382704700000140000401400004004062
:1008100000080040000C00400010004000140040A0
:1008200010B540F225511D4800F03EF810B31B48AA
:1008300000F064F8C4B21A48008800F40040C8B957
:100840001748008800F4804060B10A2C03D00020D3
:100850001349088020E01248008840F40040104905
:10086000088019E00D2C06D10D48008840F4804026
:100870000B49088010E00A480088C0F30D000949C0
:100880000C5407480088401C054908800846008829
:10089000C72801DD0020088010BD000000100140C5
:1008A000080000200C00002070B502460024002340
:1008B0000025002040F66A16B14200D100BFC1F306
:1008C000421501F01F03012606FA03F3012D02D1A0
:1008D0009689334006E0022D02D1168A334001E0AA
:1008E000968A33400C12012606FA04F41688344026
:1008F00013B10CB1012000E0002070BD01468888D2
:10090000C0F30800704700BFFEE7014600BF704714
:1009100010B504466FF00400FFF722FEE11704EB68
:100920005171C1F3C701074A11701046007800EBFE
:100930004001C1EBC0104FF6FF7101EAC00002494F
:10094000088010BD000000200200002000BF00BF92
:10095000A820FFF7DDFFFFF72FFD532140F2F31032
:10096000FFF748FE00BFFEE74FF04070E1EE100ACF
:100970007047000094090008000000200C000000EF
:10098000C4010008A00900080C0000202C0700008A
:10099000E00100080000000000000000000000006E
:0400000508000229C4
:00000001FF
