:020000040800F2
:100000004807002031020008C7080008BF080008A0
:10001000C3080008250700080B0F000800000000B7
:10002000000000000000000000000000C10A0008FD
:10003000290700080000000055090008D90B000836
:100040004B0200084B0200084B0200084B0200085C
:100050004B0200084B0200084B0200084B0200084C
:100060004B0200084B0200084B0200084B0200083C
:100070004B0200084B0200084B0200084B0200082C
:100080004B0200084B0200084B0200084B0200081C
:100090004B0200084B0200084B0200084B0200080C
:1000A0004B0200084B0200084B0200084B020008FC
:1000B0004B0200084B0200084B0200084B020008EC
:1000C0004B0200084B0200084B0200084B020008DC
:1000D0004B020008450C0008CD0C00084B0200083C
:1000E0004B0200084B0200084B0200084B020008BC
:1000F0004B0200084B0200084B0200084B020008AC
:100100004B0200084B0200084B0200084B0200089B
:100110004B0200084B0200084B0200084B0200088B
:100120004B0200084B0200084B0200084B0200087B
:100130004B0200084B0200084B0200084B0200086B
:100140004B0200084B0200084B0200084B0200085B
:100150004B0200084B0200084B0200084B0200084B
:100160004B0200084B0200084B0200084B0200083B
:100170004B0200084B0200084B0200084B0200082B
:100180004B0200084B02000800F002F800F041F8B2
:100190000AA090E8000C82448344AAF10107DA45E2
:1001A00001D100F036F8AFF2090EBAE80F0013F0F3
:1001B000010F18BFFB1A43F0010318475810000045
:1001C00078100000103A24BF78C878C1FAD85207D6
:1001D00024BF30C830C144BF04680C6070470000C1
:1001E0000023002400250026103A28BF78C1FBD840
:1001F000520728BF30C148BF0B607047642900F028
:100200007980002070471FB500F0FEFF1FBD10B5BC
:1002100010BD00F037F91146FFF7F5FF00F0E8FEDA
:1002200000F055F903B4FFF7F2FF03BC00F06FFED6
:100230000948804709480047FEE7FEE7FEE7FEE77A
:10024000FEE7FEE7FEE7FEE7FEE7FEE704480549B6
:10025000054A064B70470000DD0B000889010008C5
:1002600048010020480700204803002048030020E0
:10027000704700000FB4044910B503AA029800F0BB
:10028000D3F810BC5DF814FB140000202DE9F041F8
:100290000E460446002020622046E168884730B3BD
:1002A000252805D0D4E901219047206A401CF2E7B7
:1002B000E168204600278847050018D0A5F14100D5
:1002C000192802D820354FF40067324629462046C7
:1002D0002760FFF793FF40B1012804D0F61D26F0F8
:1002E00007060836D8E7361DD6E72846DAE7206A3B
:1002F000BDE8F0812DE9F04106460024106875291B
:10030000314616A510D0AFF30080002802DA404233
:1003100013A507E031688A0701D512A502E0490755
:1003200004D511A5012401E0AFF3008000210A22C9
:1003300006F1240709E0B0FBF2FCB0FBF2F302FB8C
:100340001C00303078541846491C0028F3D123464D
:100350002A463046BDE8F04100F00CB8000000002D
:100360002D0000002B0000002000000070477047A7
:10037000704770472DE9F0470D469946924604466E
:1003800000F124080168880604D5E06921F0100115
:10039000216000E00120A84201DD471B00E00027AA
:1003A000A1697A1902EB0900081AA0612078C00639
:1003B00002D42046AFF30080002608E0D4E90121F2
:1003C0001AF806009047206A401C761C20624E45B1
:1003D000F4DB2078C0060AD52046AFF3008006E0A3
:1003E000D4E9012130209047206A401C2062381E49
:1003F000A7F10107F4DC07E0D4E9012118F80500B2
:100400009047206A401C2062281EA5F10105F3DCFC
:100410002046AFF300802078000602D50220BDE818
:10042000F0870120FBE70000074B70B50D467B44C9
:1004300000F011F80446284600F020F810B14FF003
:10044000FF3070BD204670BDA30B000001694A1C3F
:1004500002610878704700B58FB0CDE90131002105
:10046000059105497944CDE9031011466846FFF727
:100470000DFF0FB000BD0000E5FFFFFF007B00F0A7
:1004800080007047754600F029F8AE4605006946C1
:10049000534620F00700854618B020B5FFF7D6FE7A
:1004A000BDE820404FF000064FF000074FF0000875
:1004B0004FF0000B21F00701AC46ACE8C009ACE8F6
:1004C000C009ACE8C009ACE8C0098D4670470446D5
:1004D000AFF300802046FFF7A5FE000000487047FC
:1004E000E400002021B1826842F00102826003E052
:1004F000826822F001028260704700000021084AF1
:100500001168084A1140D0E900231A4383681A434E
:10051000C3681A431143044AC2F804137047000029
:1005200004230140E030FCFF0020014010B5012110
:10053000080200F041FA00214FF4807000F03CFA0C
:1005400010BD0146C86C80B2704702460020136897
:100550000B400BB1012000E00020704730B502468F
:10056000002000235068104C20400D790C6844EAAC
:1005700005242043506090680C4C2040D1E903547E
:100580002C438D682C434D7944EA45042043906008
:10059000D06A20F470000C7D641EE4B2234340EA6C
:1005A0000350D06230BD0000FFFEFFFCFDF7FFC02E
:1005B000F0B504460D4600200021092D11DDE0684C
:1005C000A5F10A0606EB4607072606FA07F1884357
:1005D000A5F10A0606EB460603FA06F10843E060B9
:1005E0000CE0206905EB4507072606FA07F188436A
:1005F00005EB450603FA06F108432061072A0FDAE6
:10060000606B561E06EB86071F2606FA07F1884325
:10061000561E06EB860605FA06F10843606322E0E3
:100620000D2A0FDA206BD61F06EB86071F2606FA67
:1006300007F18843D61F06EB860605FA06F1084344
:10064000206310E0E06AA2F10D0606EB86071F2684
:1006500006FA07F18843A2F10D0606EB860605FAB5
:1006600006F10843E062F0BD816841F0804181609D
:100670007047000000B58DB00121084600F06CF90C
:100680000121080200F088F90121480200F084F9F4
:1006900020200B9003208DF8300000208DF83300CF
:1006A0000BA91D4800F041F810200B9003208DF895
:1006B000300000208DF833000BA9174800F035F802
:1006C000FFF734FF0020099007904FF48030089026
:1006D00000200A9007A8FFF711FF00208DF80900FD
:1006E0000590039001208DF81800002001908DF8EE
:1006F000080001A90948FFF731FF01A90848FFF7E1
:100700002DFF01210548FFF7EDFE01210448FFF709
:10071000E9FE0DB000BD00000000024000200140D5
:100720000021014000BFFEE77047F0B50A460021F6
:100730000023002400BF3DE0012505FA01F3156800
:1007400005EA03049C4234D105684F000326BE40ED
:10075000B543056015794E00B54006683543056020
:100760001579012D02D01579022D16D185684F001B
:100770000326BE40B543856055794E00B540866876
:1007800035438560456801268E40B5434560456820
:1007900096798E40B6B235434560C5684F00032652
:1007A000BE40B543C560D5794E00B540C6683543F7
:1007B000C560491C1029BFD3F0BDF0B5002300244B
:1007C0004D07ED0E02FA05F3CE1000F1200555F8A5
:1007D00026504E07F70E0F26BE40B543CF1000F14E
:1007E000200646F82750CE1000F1200555F8265077
:1007F00045EA0304CE1000F1200545F82640F0BD7F
:1008000010B504460723012221460848FFF7D0FE11
:100810000648FFF729FF00BF02210448FFF795FEB5
:100820000028F9D00148FFF78CFE10BD00200140E0
:100830002DE9F04107460C460025002608E0384621
:10084000FFF7DEFF0544052000F082FB701CC6B2F6
:10085000A642F4DBB5FBF4F080B2BDE8F081000005
:1008600010B504460723012221460848FFF7A0FEE1
:100870000648FFF7F9FE00BF02210448FFF765FEB6
:100880000028F9D00148FFF75CFE10BD00210140AF
:100890002DE9F04107460C460025002608E03846C1
:1008A000FFF7DEFF0544052000F052FB701CC6B2C6
:1008B000A642F4DBB5FBF4F080B2BDE8F08100BFE6
:1008C000FEE700BFFEE7704770B5002100230F224E
:1008D000C4781CB3174C246804F4E064C4F5E064E5
:1008E000C4F30721C1F10404E3B20A4144789C40F7
:1008F000E1B28478144021430C07210E0E4C057898
:100900006155047804F01F050124AC4005786D1191
:10091000AD0005F1E025C5F8004109E0047804F0D8
:100920001F050124AC40054D0678761145F8264098
:1009300070BD00000CED00E000E400E080E100E0AC
:1009400002490143024A1160704700000000FA05A5
:100950000CED00E07047000029B1064A126802431E
:10096000044B1A6004E0034A12688243014B1A6088
:10097000704700003038024029B1064A126802432D
:10098000044B1A6004E0034A12688243014B1A6068
:10099000704700004038024029B1064A12680243FD
:1009A000044B1A6004E0034A12688243014B1A6048
:1009B000704700004438024029B1064A12680243D9
:1009C000044B1A6004E0034A12688243014B1A6028
:1009D0007047000024380240F0B5002100220024B6
:1009E000022500260223324F3F6807F00C0121B197
:1009F000042905D0082937D105E02E4F076036E0DD
:100A00002D4F076033E02A4F3F1F3F68C7F38056E2
:100A1000274F3F1F3F6807F03F036EB1264FB7FBDC
:100A2000F3F7DFF88CC0ACF1040CDCF800C0CCF3B9
:100A3000881C07FB0CF40CE01E4FB7FBF3F7DFF844
:100A400070C0ACF1040CDCF800C0CCF3881C07FBD0
:100A50000CF4174F3F1F3F68C7F301477F1C7D0011
:100A6000B4FBF5F7076002E0124F076000BF00BF5C
:100A70000F4F3F6807F0F0010909104F7A5C0768D3
:100A8000D74047600A4F3F6807F4E051890A0B4F8F
:100A90007A5C4768D7408760054F3F6807F460413C
:100AA000490B064F7A5C4768D740C760F0BD00002D
:100AB000083802400024F40000127A0000000020F0
:100AC000704700000CB50020019000903448006889
:100AD00040F480303249086000BF3148006800F4BB
:100AE000003000900198401C0190009818B90198BE
:100AF000B0F5A04FF1D12A48006800F4003010B1E1
:100B00000120009001E0002000900098012846D1CB
:100B100023484030006840F080502149403108604F
:100B20002048006840F440401E4908601C480830D6
:100B300000681B49083108600846006840F400401E
:100B400008600846006840F4A05008601648091F75
:100B50000860081F006840F08070091F086000BF2F
:100B60000F48006800F000700028F9D040F20570CE
:100B70000E4908600A480830006820F00300084960
:100B8000083108600846006840F00200086000BFB5
:100B900003480830006800F00C000828F8D10CBDAC
:100BA000003802400070004008544007003C0240FA
:100BB000042808D14FF0E021096941F004014FF009
:100BC000E022116107E04FF0E021096921F0040102
:100BD0004FF0E022116170477047000010B51548D2
:100BE000006840F47000134908601348006840F042
:100BF00001001149086000200F49083108600E48C3
:100C000000680E4908400C4908600D48091D08603D
:100C1000081F006820F48020091F08600020064992
:100C20000C310860FFF74EFF4FF00060014980393A
:100C3000086010BD88ED00E000380240FFFFF6FEBE
:100C40001030002410B540F225511D4800F09BF8EB
:100C500010B31B4800F050F9C4B21A48008800F4E1
:100C60000040C8B91748008800F4804060B10A2CE1
:100C700003D000201349088020E01248008840F487
:100C800000401049088019E00D2C06D10D4800885D
:100C900040F480400B49088010E00A480088C0F307
:100CA0000D0009490C5407480088401C054908807C
:100CB00008460088C72801DD0020088010BD00001C
:100CC00000100140180000201C00002010B540F268
:100CD00025511D4800F057F810B31B4800F00CF9DF
:100CE000C4B21A48008800F40040C8B91748008808
:100CF00000F4804060B10A2C03D000201349088022
:100D000020E01248008840F400401049088019E0B3
:100D10000D2C06D10D48008840F480400B49088016
:100D200010E00A480088C0F30D0009490C54074838
:100D30000088401C0549088008460088C72801DD56
:100D40000020088010BD0000004400401800002072
:100D50001C00002021B1828942F40052828104E00B
:100D600082894DF6FF731A40828170470246002047
:100D7000B1F5007F00D100BF13880B400BB10120FB
:100D800000E00020704770B50246002400230025D3
:100D9000002040F66A16B14200D100BFC1F34215EF
:100DA00001F01F03012606FA03F3012D02D19689F3
:100DB000334006E0022D02D1168A334001E0968AC4
:100DC00033400C12012606FA04F41688344013B19D
:100DD0000CB1012000E0002070BDF0B503460024F6
:100DE00000260025002040F66A17B94200D100BF56
:100DF0001846C1F3421401F01F06012707FA06F551
:100E0000012C01D10C3004E0022C01D1103000E0A3
:100E100014301AB107682F43076002E00768AF4338
:100E20000760F0BD2DE9FF4705460E460024A146A8
:100E300000BFA046B08900B100BF2C8A24F4405402
:100E4000F08804432C82AC8941F20C608443B08862
:100E500031890843718908430443AC81AC8A24F486
:100E60004074B0890443AC826846FFF7B5FD204862
:100E7000854202D01F48854202D1DDF80C9001E086
:100E8000DDF80890A88900F4004040B109EBC900E2
:100E900000EB091031684900B0FBF1F707E009EBFE
:100EA000C90000EB091031688900B0FBF1F764203C
:100EB000B7FBF0F004012009642101FB1078A88938
:100EC00000F4004040B1322000EBC800B0FBF1F06C
:100ED00000F00700044308E0322000EB0810642112
:100EE000B0FBF1F000F00F0004432C81BDE8FF8758
:100EF000001001400014014001468888C0F308003A
:100F00007047C1F308028280704700BFFEE700BF50
:100F10007047000010B504466FF00400FFF748FE6C
:100F2000E11704EB5171C1F3C701074A1170104674
:100F3000007800EB4001C1EBC0104FF6FF7101EAF1
:100F4000C0000249088010BD1000002012000020DF
:100F500070B504464FF4077094FBF0F0C6B24FF43E
:100F6000077094FBF0F100FB114085B205E04FF4EF
:100F7000077000F009F8701EC6B2002EF7D115B147
:100F8000284600F001F870BD0146114A12884A4314
:100F90004FF0E0235A6100229A611A46126942F02A
:100FA00001021A6100BF4FF0E022106900F0010257
:100FB0001AB100F48032002AF5D04FF0E022126915
:100FC00022F001024FF0E0231A6100229A6170477B
:100FD0001200002000BF054A128802F04002002AD9
:100FE000F9D0C2B2014B9A80704700000010014056
:100FF0001CB500254FF4A060FFF7A2FC64270D206C
:101000008DF804000A208DF80500A820FFF782FF64
:101010004FF4E13000F0A2F84FF4E13000F048F86E
:10102000FFF728FB39461EA0FFF724F936E014210C
:101030000520FFF7FDFB064614210420FFF728FCDE
:10104000044630128DF80000F0B28DF80100201235
:101050008DF80200E0B28DF8030000250DE01DF8C8
:1010600005101048FFF74DFF00BF40210D48FFF766
:101070007DFE0128F9D1681C85B2062DEFDB0A48F8
:101080000068C0430949C1F898020846D0F89C029C
:10109000C043C1F89C02C820FFF75AFFC7E7000011
:1010A00025640A000044004098024042000040428B
:1010B00010B588B0044601210846FFF74DFC012118
:1010C0004804FFF759FC072202212248FFF775FB6D
:1010D000072203211F48FFF770FB0C200690022017
:1010E0008DF81C008DF81D0000208DF81E000120D9
:1010F0008DF81F0006A91748FFF717FB0294002080
:10110000ADF80C00ADF80E00ADF81000ADF814000D
:101110000C20ADF8120002A90F48FFF783FE012151
:101120000D48FFF717FE012240F225510A48FFF74C
:1011300054FE26208DF8040003208DF805008DF85C
:10114000060001208DF8070001A8FFF7BDFB08B0DD
:1011500010BD0000000002400044004010B588B0FF
:10116000044601210846FFF7F7FB01211020FFF795
:1011700013FC072209212248FFF71FFB07220A213F
:101180001F48FFF71AFB4FF4C060069002208DF84D
:101190001C008DF81D0000208DF81E0001208DF828
:1011A0001F0006A91648FFF7C0FA02940020ADF808
:1011B0000C00ADF80E00ADF81000ADF814000C20D6
:1011C000ADF8120002A90F48FFF72CFE01210D48CF
:1011D000FFF7C0FD012240F225510A48FFF7FDFD4F
:1011E00025208DF8040003208DF805008DF80600F9
:1011F00001208DF8070001A8FFF766FB08B010BDBD
:1012000000000240001001404FF04070E1EE100A73
:101210007047000034120008000000201C0000008D
:10122000C4010008501200081C0000202C07000018
:10123000E0010008000000000102030401020304B1
:101240000607080900000000000000000000000080
:0400000508000231BC
:00000001FF
