:020000040800F2
:100000004807002039020008D3080008CB08000880
:10001000CF0800082D070008371100080000000075
:10002000000000000000000000000000EF0C0008CD
:100030003107000800000000350A0008050E00081E
:10004000530200085302000853020008530200083C
:10005000530200085302000853020008530200082C
:10006000530200085302000853020008530200081C
:10007000530200085302000853020008530200080C
:1000800053020008530200085302000853020008FC
:1000900053020008530200085302000853020008EC
:1000A00053020008530200085302000853020008DC
:1000B00053020008530200085302000853020008CC
:1000C00053020008530200085302000853020008BC
:1000D00053020008710E0008F90E000853020008D0
:1000E000530200085302000853020008530200089C
:1000F000530200085302000853020008530200088C
:10010000530200085302000853020008530200087B
:10011000530200085302000853020008530200086B
:10012000530200085302000853020008530200085B
:10013000530200085302000853020008530200084B
:10014000530200085302000853020008530200083B
:10015000530200085302000853020008530200082B
:10016000530200085302000853020008530200081B
:10017000530200085302000853020008530200080B
:10018000530200085302000800F002F800F044F89F
:100190000AA090E8000C82448344AAF10107DA45E2
:1001A00001D100F039F8AFF2090EBAE80F0013F0F0
:1001B000010F18BFFB1A43F001031847F8120000A3
:1001C00018130000103A24BF78C878C1FAD8520733
:1001D00024BF30C830C144BF04680C6070470000C1
:1001E0000023002400250026103A28BF78C1FBD840
:1001F000520728BF30C148BF0B607047642900F028
:100200007D80752900F07A80002070471FB501F0CD
:100210004BF91FBD10B510BD00F038F91146FFF7BE
:10022000F5FF00F0FBFF00F056F903B4FFF7F2FF13
:1002300003BC00F082FF00000948804709480047DE
:10024000FEE7FEE7FEE7FEE7FEE7FEE7FEE7FEE786
:10025000FEE7FEE704480549054A064B70470000E3
:10026000090E000889010008480100204807002005
:100270004803002048030020704700000FB40449E1
:1002800010B503AA029800F0D3F810BC5DF814FB77
:10029000140000202DE9F0410E46044600202062A3
:1002A0002046E168884730B3252805D0D4E90121EC
:1002B0009047206A401CF2E7E16820460027884703
:1002C000050018D0A5F14100192802D820354FF4B7
:1002D00000673246294620462760FFF78FFF40B16E
:1002E000012804D0F61D26F007060836D8E7361D8B
:1002F000D6E72846DAE7206ABDE8F0812DE9F0412B
:100300000646002410687529314616A510D0AFF3B3
:100310000080002802DA404213A507E031688A070E
:1003200001D512A502E0490704D511A5012401E079
:10033000AFF3008000210A2206F1240709E0B0FB98
:10034000F2FCB0FBF2F302FB1C003030785418468C
:10035000491C0028F3D123462A463046BDE8F04127
:1003600000F00CB8000000002D0000002B00000081
:100370002000000070477047704770472DE9F04734
:100380000D4699469246044600F124080168880605
:1003900004D5E06921F01001216000E00120A842AD
:1003A00001DD471B00E00027A1697A1902EB090073
:1003B000081AA0612078C00602D42046AFF300805E
:1003C000002608E0D4E901211AF806009047206AC7
:1003D000401C761C20624E45F4DB2078C0060AD50E
:1003E0002046AFF3008006E0D4E901213020904799
:1003F000206A401C2062381EA7F10107F4DC07E0E8
:10040000D4E9012118F805009047206A401C2062B9
:10041000281EA5F10105F3DC2046AFF3008020780B
:10042000000602D50220BDE8F0870120FBE70000AE
:10043000074B70B50D467B4400F011F80446284682
:1004400000F020F810B14FF0FF3070BD204670BDB5
:10045000C70D000001694A1C02610878704700B5A9
:100460008FB0CDE901310021059105497944CDE9ED
:10047000031011466846FFF70DFF0FB000BD0000E6
:10048000E5FFFFFF007B00F080007047754600F03D
:1004900029F8AE4605006946534620F00700854618
:1004A00018B020B5FFF7D6FEBDE820404FF000069B
:1004B0004FF000074FF000084FF0000B21F007014C
:1004C000AC46ACE8C009ACE8C009ACE8C009ACE88F
:1004D000C0098D4670470446AFF300802046FFF701
:1004E000A4FE000000487047E400002021B18268AB
:1004F00042F00102826003E0826822F00102826021
:10050000704700000021084A1168084A1140D0E9EC
:1005100000231A4383681A43C3681A431143044AE9
:10052000C2F804137047000004230140E030FCFFD0
:100530000020014010B50121080200F0ADFA0021B1
:100540004FF4807000F0A8FA10BD0146C86C80B26C
:1005500070470246002013680B400BB1012000E0F9
:100560000020704730B50246002000235068104C30
:1005700020400D790C6844EA0524204350609068BF
:100580000C4C2040D1E903542C438D682C434D7909
:1005900044EA450420439060D06A20F470000C7D4A
:1005A000641EE4B2234340EA0350D06230BD000031
:1005B000FFFEFFFCFDF7FFC0F0B504460D4600202E
:1005C0000021092D11DDE068A5F10A0606EB4607BA
:1005D000072606FA07F18843A5F10A0606EB460648
:1005E00003FA06F10843E0600CE0206905EB4507DB
:1005F000072606FA07F1884305EB450603FA06F1DC
:1006000008432061072A0FDA606B561E06EB860747
:100610001F2606FA07F18843561E06EB860605FAE2
:1006200006F10843606322E00D2A0FDA206BD61F23
:1006300006EB86071F2606FA07F18843D61F06EB4E
:10064000860605FA06F10843206310E0E06AA2F18D
:100650000D0606EB86071F2606FA07F18843A2F16E
:100660000D0606EB860605FA06F10843E062F0BDCA
:10067000816841F0804181607047000000B58DB015
:100680000121084600F0D8F90121080200F0F4F930
:100690000121480200F0F0F920200B9003208DF892
:1006A000300000208DF833000BA91D4800F041F800
:1006B00010200B9003208DF8300000208DF83300BF
:1006C0000BA9174800F035F8FFF734FF0020099018
:1006D00007904FF48030089000200A9007A8FFF799
:1006E00011FF00208DF809000590039001208DF87E
:1006F0001800002001908DF8080001A90948FFF7B3
:1007000031FF01A90848FFF72DFF01210548FFF738
:10071000EDFE01210448FFF7E9FE0DB000BD000029
:1007200000000240002001400021014000BFFEE720
:100730007047F0B50A4600210023002400BF3DE0C9
:10074000012505FA01F3156805EA03049C4234D13A
:1007500005684F000326BE40B543056015794E007D
:10076000B5400668354305601579012D02D015792D
:10077000022D16D185684F000326BE40B543856023
:1007800055794E00B5408668354385604568012639
:100790008E40B5434560456896798E40B6B2354384
:1007A0004560C5684F000326BE40B543C560D57996
:1007B0004E00B540C6683543C560491C1029BFD3FB
:1007C000F0BDF0B5002300244D07ED0E02FA05F34D
:1007D000CE1000F1200555F826504E07F70E0F26D3
:1007E000BE40B543CF1000F1200646F82750CE108A
:1007F00000F1200555F8265045EA0304CE1000F11B
:10080000200545F82640F0BD0183704710B5044629
:100810000723012221460848FFF7CEFE0648FFF7CE
:1008200027FF00BF02210448FFF793FE0028F9D0FC
:100830000148FFF78AFE10BD002001402DE9F0417C
:1008400007460C460025002608E03846FFF7DEFF85
:100850000544052000F092FC701CC6B2A642F4DBF1
:10086000B5FBF4F080B2BDE8F081000010B504469D
:100870000723012221460848FFF79EFE0648FFF79E
:10088000F7FE00BF02210448FFF763FE0028F9D0FD
:100890000148FFF75AFE10BD002101402DE9F0414B
:1008A00007460C460025002608E03846FFF7DEFF25
:1008B0000544052000F062FC701CC6B2A642F4DBC1
:1008C000B5FBF4F080B2BDE8F08100BFFEE700BFE9
:1008D000FEE770471CB50121022000F0ADF8C020F2
:1008E000009001208DF8040000208DF80600032000
:1008F0008DF8050001208DF8070069461048FFF7C4
:1009000018FF4FF48070009000208DF80400012043
:100910008DF8070069460A48FFF70BFF4FF4E071B6
:100920000748FFF771FF00F03BF900F00FF80020D7
:100930000449086001200449C1F89C021CBD000064
:1009400000040240988240420080404200B585B0D9
:100950000021144800F096F90020ADF800004FF493
:100960008270ADF802000020ADF80400ADF806007A
:10097000ADF808004FF40070ADF80A003820ADF86B
:100980000C000020ADF80E000720ADF810006946FD
:10099000044800F08EF90121024800F073F905B017
:1009A00000BD00000030014070B5002100230F227F
:1009B000C4781CB3174C246804F4E064C4F5E06404
:1009C000C4F30721C1F10404E3B20A4144789C4016
:1009D000E1B28478144021430C07210E0E4C0578B7
:1009E0006155047804F01F050124AC4005786D11B1
:1009F000AD0005F1E025C5F8004109E0047804F0F8
:100A00001F050124AC40054D0678761145F82640B7
:100A100070BD00000CED00E000E400E080E100E0CB
:100A200002490143024A1160704700000000FA05C4
:100A30000CED00E07047000029B1064A126802433D
:100A4000044B1A6004E0034A12688243014B1A60A7
:100A5000704700003038024029B1064A126802434C
:100A6000044B1A6004E0034A12688243014B1A6087
:100A7000704700004038024029B1064A126802431C
:100A8000044B1A6004E0034A12688243014B1A6067
:100A9000704700004438024029B1064A12680243F8
:100AA000044B1A6004E0034A12688243014B1A6047
:100AB0007047000024380240F0B5002100220024D5
:100AC000022500260223324F3F6807F00C0121B1B6
:100AD000042905D0082937D105E02E4F076036E0FC
:100AE0002D4F076033E02A4F3F1F3F68C7F3805602
:100AF000274F3F1F3F6807F03F036EB1264FB7FBFC
:100B0000F3F7DFF88CC0ACF1040CDCF800C0CCF3D8
:100B1000881C07FB0CF40CE01E4FB7FBF3F7DFF863
:100B200070C0ACF1040CDCF800C0CCF3881C07FBEF
:100B30000CF4174F3F1F3F68C7F301477F1C7D0030
:100B4000B4FBF5F7076002E0124F076000BF00BF7B
:100B50000F4F3F6807F0F0010909104F7A5C0768F2
:100B6000D74047600A4F3F6807F4E051890A0B4FAE
:100B70007A5C4768D7408760054F3F6807F460415B
:100B8000490B064F7A5C4768D740C760F0BD00004C
:100B9000083802400024F40000127A00000000200F
:100BA00000B587B001210220FFF746FF01210803AD
:100BB000FFF762FF3820059002208DF81800002012
:100BC0008DF81A0003208DF8190001208DF81B0004
:100BD00005A92248FFF7ADFD052203211F48FFF7B5
:100BE000F0FD052204211D48FFF7EBFD052211460B
:100BF0001A48FFF7E6FD01210803FFF74DFF00212A
:100C00004FF48050FFF748FF0020ADF800004FF48C
:100C10008270ADF802000020ADF804000220ADF8AB
:100C200006000120ADF808004002ADF80A003820A7
:100C3000ADF80C000020ADF80E000720ADF8100054
:100C40006946074800F035F80121054800F01AF818
:100C5000FF2000F007F807B000BD000000040240CC
:100C60000030014010B5044600BF0221044800F0E6
:100C700015F80028F9D02146014800F018F810BDF9
:100C80000030014021B1028842F04002028004E0BD
:100C900002884FF6BF731A40028070470246002058
:100CA00013890B400BB1012000E0002070478181C7
:100CB000704710B50022028802F441520B884C881C
:100CC00023438C882343CC8823430C8923434C89BA
:100CD00023438C892343CC8923431A430280838B8B
:100CE0004FF2FF74234083830B8A038210BD704749
:100CF0000CB50020019000903448006840F480302A
:100D00003249086000BF3148006800F400300090AC
:100D10000198401C0190009818B90198B0F5A04FB7
:100D2000F1D12A48006800F4003010B10120009091
:100D300001E0002000900098012846D1234840306F
:100D4000006840F080502149403108602048006828
:100D500040F440401E4908601C48083000681B49A8
:100D6000083108600846006840F400400860084602
:100D7000006840F4A05008601648091F0860081F6A
:100D8000006840F08070091F086000BF0F480068CD
:100D900000F000700028F9D040F205700E4908609C
:100DA0000A480830006820F003000849083108604C
:100DB0000846006840F00200086000BF03480830A1
:100DC000006800F00C000828F8D10CBD0038024083
:100DD0000070004008544007003C0240042808D13D
:100DE0004FF0E021096941F004014FF0E022116168
:100DF00007E04FF0E021096921F004014FF0E02203
:100E0000116170477047000010B51548006840F444
:100E10007000134908601348006840F00100114950
:100E2000086000200F49083108600E4800680E492C
:100E300008400C4908600D48091D0860081F00683B
:100E400020F48020091F0860002006490C3108604A
:100E5000FFF74EFF4FF0006001498039086010BD78
:100E600088ED00E000380240FFFFF6FE103000245D
:100E700010B540F225511D4800F09BF810B31B48F7
:100E800000F050F9C4B21A48008800F40040C8B914
:100E90001748008800F4804060B10A2C03D000207D
:100EA0001349088020E01248008840F400401049AF
:100EB000088019E00D2C06D10D48008840F48040D0
:100EC0000B49088010E00A480088C0F30D0009496A
:100ED0000C5407480088401C0549088008460088D3
:100EE000C72801DD0020088010BD0000001001406F
:100EF000180000201C00002010B540F225511D48AC
:100F000000F057F810B31B4800F00CF9C4B21A48AF
:100F1000008800F40040C8B91748008800F48040F9
:100F200060B10A2C03D000201349088020E0124849
:100F3000008840F400401049088019E00D2C06D1CB
:100F40000D48008840F480400B49088010E00A48B2
:100F50000088C0F30D0009490C5407480088401C64
:100F60000549088008460088C72801DD0020088060
:100F700010BD000000440040180000201C000020AC
:100F800021B1828942F40052828104E082894DF6C7
:100F9000FF731A408281704702460020B1F5007F3E
:100FA00000D100BF13880B400BB1012000E00020EE
:100FB000704770B50246002400230025002040F64B
:100FC0006A16B14200D100BFC1F3421501F01F0300
:100FD000012606FA03F3012D02D19689334006E07B
:100FE000022D02D1168A334001E0968A33400C125A
:100FF000012606FA04F41688344013B10CB101201E
:1010000000E0002070BDF0B5034600240026002556
:10101000002040F66A17B94200D100BF1846C1F35C
:10102000421401F01F06012707FA06F5012C01D131
:101030000C3004E0022C01D1103000E014301AB161
:1010400007682F43076002E00768AF430760F0BD01
:101050002DE9FF4705460E460024A14600BFA046E5
:10106000B08900B100BF2C8A24F44054F0880443B6
:101070002C82AC8941F20C608443B08831890843EA
:10108000718908430443AC81AC8A24F44074B0896C
:101090000443AC826846FFF70FFD2048854202D02A
:1010A0001F48854202D1DDF80C9001E0DDF8089080
:1010B000A88900F4004040B109EBC90000EB091019
:1010C00031684900B0FBF1F707E009EBC90000EB1C
:1010D000091031688900B0FBF1F76420B7FBF0F02C
:1010E00004012009642101FB1078A88900F4004064
:1010F00040B1322000EBC800B0FBF1F000F0070077
:10110000044308E0322000EB08106421B0FBF1F04A
:1011100000F00F0004432C81BDE8FF870010014060
:101120000014014001468888C0F308007047C1F3ED
:1011300008028280704700BFFEE700BF70470000D2
:1011400010B504466FF00400FFF748FEE11704EB0A
:101150005171C1F3C701074A11701046007800EBC6
:101160004001C1EBC0104FF6FF7101EAC000024917
:10117000088010BD100000201200002070B5044649
:101180004FF4077094FBF0F0C6B24FF4077094FB75
:10119000F0F100FB114085B205E04FF4077000F05C
:1011A00009F8701EC6B2002EF7D115B1284600F01E
:1011B00001F870BD0146114A12884A434FF0E023FE
:1011C0005A6100229A611A46126942F001021A61BC
:1011D00000BF4FF0E022106900F001021AB100F4E4
:1011E0008032002AF5D04FF0E022126922F001028D
:1011F0004FF0E0231A6100229A617047120000202C
:1012000000BF054A128802F04002002AF9D0C2B29B
:10121000014B9A8070470000001001401CB5002669
:101220004FF4A060FFF7FCFB64270D208DF804004D
:101230000A208DF80500A820FFF782FF4FF4E13067
:1012400000F0DCF84FF4E13000F082F8FFF716FA16
:10125000FFF740FB394629A0FFF710F84CE01421B6
:101260000520FFF7EBFA044614210420FFF716FBD4
:101270000546214622A0FFF701F8294623A0FEF7E4
:10128000FDFF20128DF80000E0B28DF80100281259
:101290008DF80200E8B28DF803009DF800101EA042
:1012A000FEF7ECFF9DF8011015A0FEF7E7FF9DF893
:1012B000021016A0FEF7E2FF9DF8031019A0FEF73A
:1012C000DDFF002613E01DF806101948FFF72FFF79
:1012D00018A0FEF7D3FF00BF40211548FFF75CFEC2
:1012E0000128F9D117A0FEF7C9FF701C86B2062E9F
:1012F000E9DB6420FFF742FFB1E7000025640A0044
:10130000616463313D25750D0A000000616463323C
:101310003D25750D0A000000616463303D25750DA3
:101320000A000000616463333D25750D0A0000006A
:10133000004400406265666F7265207768696C657D
:10134000000000006166746572207768696C650052
:1013500010B588B0044601210846FFF76DFB012156
:101360004804FFF779FB072202212248FFF729FAF8
:10137000072203211F48FFF724FA0C2006900220C1
:101380008DF81C008DF81D0000208DF81E00012036
:101390008DF81F0006A91748FFF7CBF9029400202B
:1013A000ADF80C00ADF80E00ADF81000ADF814006B
:1013B0000C20ADF8120002A90F48FFF749FE0121E9
:1013C0000D48FFF7DDFD012240F225510A48FFF7E5
:1013D0001AFE26208DF8040003208DF805008DF8F4
:1013E000060001208DF8070001A8FFF7DDFA08B01C
:1013F00010BD0000000002400044004010B588B05D
:10140000044601210846FFF717FB01211020FFF7D2
:1014100033FB072209212248FFF7D3F907220A21CB
:101420001F48FFF7CEF94FF4C060069002208DF8F8
:101430001C008DF81D0000208DF81E0001208DF885
:101440001F0006A91648FFF774F902940020ADF8B2
:101450000C00ADF80E00ADF81000ADF814000C2033
:10146000ADF8120002A90F48FFF7F2FD01210D4867
:10147000FFF786FD012240F225510A48FFF7C3FD20
:1014800025208DF8040003208DF805008DF8060056
:1014900001208DF8070001A8FFF786FA08B010BDFB
:1014A00000000240001001404FF04070E1EE100AD1
:1014B00070470000D4140008000000201C00000049
:1014C000C4010008F01400081C0000202C070000D4
:1014D000E00100080000000001020304010203040F
:1014E00006070809000000000000000000000000DE
:0400000508000239B4
:00000001FF
